:0300000002001EDD
:0C001E00787FE4F6D8FD758121020065B2
:0100080022D5
:0100090022D4
:01000A0022D3
:01000E0022CF
:0200060080FE7A
:03056B000120006C
:1003E300759850438780438920EF8EF0120155049E
:1003F3000204B0040A0960041212C000000412755A
:100403008BCC758DCC800E758BE6758DE68006756D
:080413008BF3758DF3D28E22EC
:0A02DE008B108A1189128C138D1405
:1002E800E4FFFEE51424FFFDE51334FFFCC3EF9D96
:1002F800EE9C5025AB10AA11A9128F828E83120191
:1003080016FD640A6013ED6010600E8D993099FD3A
:10031800C2990FBF00010E80CA75990A3099FDC2B3
:01032800993B
:0103290022B1
:07057700000000000000225B
:1004CF00E4FDFCC3ED9FEC9E5015E4FBFA0BBB0063
:0F04DF00010AEB647B4A70F50DBD00010C80E44F
:0104EE0022EB
:04041B008E188F198F
:10041F00E4FBFAF582F583AE18AF197C007D0A1262
:10042F000143C3EB9FEA9E5017E4F583F582A3E5E2
:10043F0082B4EAFAE583B454F50BBB00010A80D706
:01044F00228A
:100531003F065B4F666D7D077F6F777C395E797112
:0105410000B9
:10018200ED1392A2ED24FD600B24FD6007146004C0
:1001920024057004D2A38002C2A3EDC394044004D8
:1001A200D2A48002C2A4EFC39430400CEFD394399E
:1001B2005006EF9005018016EFC39461400CEFD317
:1001C20094665006EF9004DA8004EF9004FA93F5F7
:0C01D200807F017E001204CFE4F5802243
:10032A0020B10D7F0A7E001204CF20B1037F012283
:10033A0020B00D7F0A7E001204CF20B0037F022274
:10034A0020B20D7F0A7E001204CF20B2037F03225F
:10035A0020B30D7F0A7E001204CF20B3037F04224C
:03036A007F0022EF
:1000AA0075211075900FE590640F605D7F0A7E00E0
:1000BA001204CFE590640F605075900FAF90EF2453
:1000CA00F5601024FE601114601324077012E4F521
:1000DA0021800D7521018008752102800375210395
:1000EA007590F0AF90EF2450601124E0601124F075
:1000FA00601124707013852121800E7404800674A7
:0B010A00088002740C2521F521AF21B4
:0101150022C7
:07057E00D2AFD2A8D28822FF
:0300030002036D88
:10036D00C0E0C0F0C083C082C0D075D000C000C056
:10037D0001C002C003C004C005C006C007120008BA
:10038D00D007D006D005D004D003D002D001D000C4
:0B039D00D0D0D082D083D0F0D0E0326E
:07058500D2AFD2AAD28A22F4
:030013000203A83D
:1003A800C0E0C0F0C083C082C0D075D000C000C01B
:1003B80001C002C003C004C005C006C0071200097E
:1003C800D007D006D005D004D003D002D001D00089
:0B03D800D0D0D082D083D0F0D0E03233
:0D055100EF700312057EBF01031205852225
:08056E00020C0000020E000067
:02050800AD073D
:10050A007FFC7E18ED70048F8C8E8ABD01048F8D5E
:02051A008E8BC6
:01051C0022BC
:0D055E00EF7003438901BF010343891022A0
:10048200A9078D828C8312055E120508E9700CD2D1
:10049200A9D2AFD28C85830C85820DB9010CD2AB67
:0B04A200D2AFD28E85830E85820F2220
:03000B000201DE11
:1001DE00C0E0C0F0C083C082C0D075D000C000C0E7
:0D01EE0001C002C003C004C005C006C00768
:1001FB00E4FF1205080509E50970020508B50D0EA7
:0E020B00E508B50C0975080075090012000A17
:10021900D007D006D005D004D003D002D001D00039
:0B022900D0D0D082D083D0F0D0E032E3
:03001B00020234AA
:10023400C0E0C0F0C083C082C0D075D000C000C090
:0D02440001C002C003C004C005C006C00711
:100251007F01120508050BE50B7002050AB50F0EAB
:0E026100E50AB50E09750A00750B0012000EB5
:10026F00D007D006D005D004D003D002D001D000E3
:0B027F00D0D0D082D083D0F0D0E0328D
:10051D00D2A0120577D2A1120577C2A0120577C21B
:04052D00A1020577AB
:0F054200C2A0120577D2A1120577D2A0020577C9
:02028A008F15CE
:10028C00E4F516F517F516E515C4131313540124EC
:10029C00FF92A0E51525E0F515120577D2A1120500
:1002AC0077C2A11205770516E516C3940840D8D27B
:1002BC00A0120577D2A130A0110517E517D394C869
:1002CC0040F4C2A11205777F0022C2A11205777FEC
:0102DC000120
:0102DD0022FE
:10045000E4F51AF51BD2A0120577E4F51AD2A11221
:100460000577E51B25E0F51BA2A0E433421B12052E
:1004700077C2A1120577051AE51AC3940840DEAFCA
:010480001B60
:010481002258
:1004EF008F1C8D1D12051D7FA012028AAF1C1202D8
:0904FF008AAF1D12028A020542B7
:0204AD008F1EA0
:1004AF0012051D7FA012028AAF1E12028A12051DAD
:0F04BF007FA112028A1204508F1F120542AF1F35
:0104CE00220B
:10002A00020006E493A3F8E493A34003F68001F2E6
:10003A0008DFF48029E493A3F85407240CC8C333D7
:10004A00C4540F4420C8834004F456800146F6DFA6
:10005A00E4800B010204081020408090056BE47EC6
:10006A00019360BCA3FF543F30E509541FFEE4939B
:10007A00A360010ECF54C025E060A840B8E493A362
:10008A00FAE493A3F8E493A3C8C582C8CAC583CA8D
:10009A00F0A3C8C582C8CAC583CADFE9DEE780BE45
:010576000084
:10011600BB010CE58229F582E5833AF583E022509E
:1001260006E92582F8E622BBFE06E92582F8E222E8
:0D013600E58229F582E5833AF583E4932202
:10014300EF8DF0A4A8F0CF8CF0A428CE8DF0A42ED0
:02015300FE228A
:10015500D083D082F8E4937012740193700DA3A339
:1001650093F8740193F5828883E473740293B5F070
:0D017500067403936860E9A3A3A3A380D8D8
:00000001FF
